{
  "contractName": "Certification",
  "abi": [
    {
      "inputs": [
        {
          "internalType": "string",
          "name": "name",
          "type": "string"
        }
      ],
      "payable": true,
      "stateMutability": "payable",
      "type": "constructor"
    },
    {
      "anonymous": false,
      "inputs": [
        {
          "indexed": true,
          "internalType": "address",
          "name": "accountAddress",
          "type": "address"
        },
        {
          "indexed": false,
          "internalType": "uint256",
          "name": "amount",
          "type": "uint256"
        }
      ],
      "name": "LogDepositMade",
      "type": "event"
    },
    {
      "constant": false,
      "inputs": [
        {
          "internalType": "string",
          "name": "_name",
          "type": "string"
        }
      ],
      "name": "AddCertificate",
      "outputs": [
        {
          "internalType": "uint64",
          "name": "",
          "type": "uint64"
        }
      ],
      "payable": false,
      "stateMutability": "nonpayable",
      "type": "function"
    },
    {
      "constant": false,
      "inputs": [
        {
          "internalType": "uint64",
          "name": "_certificate",
          "type": "uint64"
        },
        {
          "internalType": "string",
          "name": "_name",
          "type": "string"
        }
      ],
      "name": "GiveCertificate",
      "outputs": [
        {
          "internalType": "uint256",
          "name": "Number",
          "type": "uint256"
        },
        {
          "internalType": "bool",
          "name": "success",
          "type": "bool"
        }
      ],
      "payable": false,
      "stateMutability": "nonpayable",
      "type": "function"
    },
    {
      "constant": true,
      "inputs": [
        {
          "internalType": "uint64",
          "name": "_certificate",
          "type": "uint64"
        }
      ],
      "name": "SeeCertificates",
      "outputs": [
        {
          "internalType": "string",
          "name": "Certificate",
          "type": "string"
        },
        {
          "internalType": "uint256",
          "name": "validationNumber",
          "type": "uint256"
        },
        {
          "internalType": "uint64",
          "name": "Count",
          "type": "uint64"
        },
        {
          "internalType": "uint256",
          "name": "firstTimestamp",
          "type": "uint256"
        },
        {
          "internalType": "uint256",
          "name": "lastTimestamp",
          "type": "uint256"
        }
      ],
      "payable": false,
      "stateMutability": "view",
      "type": "function"
    },
    {
      "constant": true,
      "inputs": [
        {
          "internalType": "uint64",
          "name": "_certificate",
          "type": "uint64"
        },
        {
          "internalType": "uint64",
          "name": "_person",
          "type": "uint64"
        }
      ],
      "name": "SeePeople",
      "outputs": [
        {
          "internalType": "string",
          "name": "Person",
          "type": "string"
        },
        {
          "internalType": "uint256",
          "name": "Certificate",
          "type": "uint256"
        }
      ],
      "payable": false,
      "stateMutability": "view",
      "type": "function"
    },
    {
      "constant": true,
      "inputs": [
        {
          "internalType": "uint256",
          "name": "_num",
          "type": "uint256"
        }
      ],
      "name": "CheckCertificate",
      "outputs": [
        {
          "internalType": "address payable",
          "name": "House",
          "type": "address"
        },
        {
          "internalType": "string",
          "name": "Certificate",
          "type": "string"
        },
        {
          "internalType": "string",
          "name": "Person",
          "type": "string"
        }
      ],
      "payable": false,
      "stateMutability": "view",
      "type": "function"
    }
  ],
  "bytecode": "0x6080604052306000806101000a81548173ffffffffffffffffffffffffffffffffffffffff021916908373ffffffffffffffffffffffffffffffffffffffff1602179055506000809054906101000a900473ffffffffffffffffffffffffffffffffffffffff16600160006101000a81548173ffffffffffffffffffffffffffffffffffffffff021916908373ffffffffffffffffffffffffffffffffffffffff16021790555060405162001ac338038062001ac383398181016040526020811015620000cb57600080fd5b8101908080516040519392919084640100000000821115620000ec57600080fd5b838201915060208201858111156200010357600080fd5b82518660018202830111640100000000821117156200012157600080fd5b8083526020830192505050908051906020019080838360005b83811015620001575780820151818401526020810190506200013a565b50505050905090810190601f168015620001855780820380516001836020036101000a031916815260200191505b5060405250505060405180604001604052803373ffffffffffffffffffffffffffffffffffffffff16815260200182815250600260008201518160000160006101000a81548173ffffffffffffffffffffffffffffffffffffffff021916908373ffffffffffffffffffffffffffffffffffffffff16021790555060208201518160010190805190602001906200021e92919062000229565b5090505050620002d8565b828054600181600116156101000203166002900490600052602060002090601f016020900481019282601f106200026c57805160ff19168380011785556200029d565b828001600101855582156200029d579182015b828111156200029c5782518255916020019190600101906200027f565b5b509050620002ac9190620002b0565b5090565b620002d591905b80821115620002d1576000816000905550600101620002b7565b5090565b90565b6117db80620002e86000396000f3fe608060405234801561001057600080fd5b50600436106100575760003560e01c80631307d8051461005c57806319c79b0c1461014a57806331cec3e21461029057806338e46eaa1461035c578063634f45461461043f575b600080fd5b6101296004803603604081101561007257600080fd5b81019080803567ffffffffffffffff169060200190929190803590602001906401000000008111156100a357600080fd5b8201836020820111156100b557600080fd5b803590602001918460018302840111640100000000831117156100d757600080fd5b91908080601f016020809104026020016040519081016040528093929190818152602001838380828437600081840152601f19601f820116905080830192505050505050509192919290505050610520565b60405180838152602001821515151581526020019250505060405180910390f35b6101766004803603602081101561016057600080fd5b8101908080359060200190929190505050610c70565b604051808473ffffffffffffffffffffffffffffffffffffffff1673ffffffffffffffffffffffffffffffffffffffff1681526020018060200180602001838103835285818151815260200191508051906020019080838360005b838110156101ec5780820151818401526020810190506101d1565b50505050905090810190601f1680156102195780820380516001836020036101000a031916815260200191505b50838103825284818151815260200191508051906020019080838360005b83811015610252578082015181840152602081019050610237565b50505050905090810190601f16801561027f5780820380516001836020036101000a031916815260200191505b509550505050505060405180910390f35b6102da600480360360408110156102a657600080fd5b81019080803567ffffffffffffffff169060200190929190803567ffffffffffffffff169060200190929190505050610e1d565b6040518080602001838152602001828103825284818151815260200191508051906020019080838360005b83811015610320578082015181840152602081019050610305565b50505050905090810190601f16801561034d5780820380516001836020036101000a031916815260200191505b50935050505060405180910390f35b6104156004803603602081101561037257600080fd5b810190808035906020019064010000000081111561038f57600080fd5b8201836020820111156103a157600080fd5b803590602001918460018302840111640100000000831117156103c357600080fd5b91908080601f016020809104026020016040519081016040528093929190818152602001838380828437600081840152601f19601f8201169050808301925050505050505091929192905050506110a3565b604051808267ffffffffffffffff1667ffffffffffffffff16815260200191505060405180910390f35b6104756004803603602081101561045557600080fd5b81019080803567ffffffffffffffff169060200190929190505050611338565b60405180806020018681526020018567ffffffffffffffff1667ffffffffffffffff168152602001848152602001838152602001828103825287818151815260200191508051906020019080838360005b838110156104e15780820151818401526020810190506104c6565b50505050905090810190601f16801561050e5780820380516001836020036101000a031916815260200191505b50965050505050505060405180910390f35b6000806020835111158015610536575060008351115b61053f57600080fd5b600115156002800160003373ffffffffffffffffffffffffffffffffffffffff1673ffffffffffffffffffffffffffffffffffffffff16815260200190815260200160002060010160008667ffffffffffffffff1667ffffffffffffffff16815260200190815260200160002060020160009054906101000a900460ff161515146105c957600080fd5b60006106406002800160003373ffffffffffffffffffffffffffffffffffffffff1673ffffffffffffffffffffffffffffffffffffffff16815260200190815260200160002060010160008767ffffffffffffffff1667ffffffffffffffff168152602001908152602001600020600101546116ad565b9050426002800160003373ffffffffffffffffffffffffffffffffffffffff1673ffffffffffffffffffffffffffffffffffffffff16815260200190815260200160002060010160008767ffffffffffffffff1667ffffffffffffffff168152602001908152602001600020600401819055506040518060800160405280858152602001428152602001600115158152602001828152506002800160003373ffffffffffffffffffffffffffffffffffffffff1673ffffffffffffffffffffffffffffffffffffffff16815260200190815260200160002060010160008767ffffffffffffffff1667ffffffffffffffff16815260200190815260200160002060050160006002800160003373ffffffffffffffffffffffffffffffffffffffff1673ffffffffffffffffffffffffffffffffffffffff16815260200190815260200160002060010160008967ffffffffffffffff1667ffffffffffffffff16815260200190815260200160002060020160019054906101000a900467ffffffffffffffff1667ffffffffffffffff1667ffffffffffffffff1681526020019081526020016000206000820151816000019080519060200190610804929190611701565b506020820151816001015560408201518160020160006101000a81548160ff0219169083151502179055506060820151816003015590505060405180606001604052803373ffffffffffffffffffffffffffffffffffffffff1681526020016002800160003373ffffffffffffffffffffffffffffffffffffffff1673ffffffffffffffffffffffffffffffffffffffff16815260200190815260200160002060010160008867ffffffffffffffff1667ffffffffffffffff1681526020019081526020016000206000018054600181600116156101000203166002900480601f0160208091040260200160405190810160405280929190818152602001828054600181600116156101000203166002900480156109635780601f1061093857610100808354040283529160200191610963565b820191906000526020600020905b81548152906001019060200180831161094657829003601f168201915b505050505081526020016002800160003373ffffffffffffffffffffffffffffffffffffffff1673ffffffffffffffffffffffffffffffffffffffff16815260200190815260200160002060010160008867ffffffffffffffff1667ffffffffffffffff16815260200190815260200160002060050160006002800160003373ffffffffffffffffffffffffffffffffffffffff1673ffffffffffffffffffffffffffffffffffffffff16815260200190815260200160002060010160008a67ffffffffffffffff1667ffffffffffffffff16815260200190815260200160002060020160019054906101000a900467ffffffffffffffff1667ffffffffffffffff1667ffffffffffffffff1681526020019081526020016000206000018054600181600116156101000203166002900480601f016020809104026020016040519081016040528092919081815260200182805460018160011615610100020316600290048015610b155780601f10610aea57610100808354040283529160200191610b15565b820191906000526020600020905b815481529060010190602001808311610af857829003601f168201915b50505050508152506005600083815260200190815260200160002060008201518160000160006101000a81548173ffffffffffffffffffffffffffffffffffffffff021916908373ffffffffffffffffffffffffffffffffffffffff1602179055506020820151816001019080519060200190610b93929190611701565b506040820151816002019080519060200190610bb0929190611701565b5090505060016002800160003373ffffffffffffffffffffffffffffffffffffffff1673ffffffffffffffffffffffffffffffffffffffff16815260200190815260200160002060010160008767ffffffffffffffff1667ffffffffffffffff16815260200190815260200160002060020160018282829054906101000a900467ffffffffffffffff160192506101000a81548167ffffffffffffffff021916908367ffffffffffffffff16021790555080600192509250509250929050565b60006060806005600085815260200190815260200160002060000160009054906101000a900473ffffffffffffffffffffffffffffffffffffffff166005600086815260200190815260200160002060010160056000878152602001908152602001600020600201818054600181600116156101000203166002900480601f016020809104026020016040519081016040528092919081815260200182805460018160011615610100020316600290048015610d6d5780601f10610d4257610100808354040283529160200191610d6d565b820191906000526020600020905b815481529060010190602001808311610d5057829003601f168201915b50505050509150808054600181600116156101000203166002900480601f016020809104026020016040519081016040528092919081815260200182805460018160011615610100020316600290048015610e095780601f10610dde57610100808354040283529160200191610e09565b820191906000526020600020905b815481529060010190602001808311610dec57829003601f168201915b505050505090509250925092509193909250565b60606000600115156002800160003373ffffffffffffffffffffffffffffffffffffffff1673ffffffffffffffffffffffffffffffffffffffff16815260200190815260200160002060010160008667ffffffffffffffff1667ffffffffffffffff16815260200190815260200160002060050160008567ffffffffffffffff1667ffffffffffffffff16815260200190815260200160002060020160009054906101000a900460ff16151514610ed357600080fd5b6002800160003373ffffffffffffffffffffffffffffffffffffffff1673ffffffffffffffffffffffffffffffffffffffff16815260200190815260200160002060010160008567ffffffffffffffff1667ffffffffffffffff16815260200190815260200160002060050160008467ffffffffffffffff1667ffffffffffffffff1681526020019081526020016000206000016002800160003373ffffffffffffffffffffffffffffffffffffffff1673ffffffffffffffffffffffffffffffffffffffff16815260200190815260200160002060010160008667ffffffffffffffff1667ffffffffffffffff16815260200190815260200160002060050160008567ffffffffffffffff1667ffffffffffffffff16815260200190815260200160002060030154818054600181600116156101000203166002900480601f0160208091040260200160405190810160405280929190818152602001828054600181600116156101000203166002900480156110915780601f1061106657610100808354040283529160200191611091565b820191906000526020600020905b81548152906001019060200180831161107457829003601f168201915b50505050509150915091509250929050565b600060208251111580156110b8575060008251115b6110c157600080fd5b6040518060c001604052808381526020016110dc600d6116ad565b8152602001600115158152602001600067ffffffffffffffff168152602001428152602001428152506002800160003373ffffffffffffffffffffffffffffffffffffffff1673ffffffffffffffffffffffffffffffffffffffff16815260200190815260200160002060010160006002800160003373ffffffffffffffffffffffffffffffffffffffff1673ffffffffffffffffffffffffffffffffffffffff16815260200190815260200160002060000160149054906101000a900467ffffffffffffffff1667ffffffffffffffff1667ffffffffffffffff16815260200190815260200160002060008201518160000190805190602001906111e2929190611701565b506020820151816001015560408201518160020160006101000a81548160ff02191690831515021790555060608201518160020160016101000a81548167ffffffffffffffff021916908367ffffffffffffffff1602179055506080820151816003015560a0820151816004015590505060016002800160003373ffffffffffffffffffffffffffffffffffffffff1673ffffffffffffffffffffffffffffffffffffffff16815260200190815260200160002060000160148282829054906101000a900467ffffffffffffffff160192506101000a81548167ffffffffffffffff021916908367ffffffffffffffff1602179055506002800160003373ffffffffffffffffffffffffffffffffffffffff1673ffffffffffffffffffffffffffffffffffffffff16815260200190815260200160002060000160149054906101000a900467ffffffffffffffff169050919050565b6060600080600080600115156002800160003373ffffffffffffffffffffffffffffffffffffffff1673ffffffffffffffffffffffffffffffffffffffff16815260200190815260200160002060010160008867ffffffffffffffff1667ffffffffffffffff16815260200190815260200160002060020160009054906101000a900460ff161515146113ca57600080fd5b6002800160003373ffffffffffffffffffffffffffffffffffffffff1673ffffffffffffffffffffffffffffffffffffffff16815260200190815260200160002060010160008767ffffffffffffffff1667ffffffffffffffff1681526020019081526020016000206000016002800160003373ffffffffffffffffffffffffffffffffffffffff1673ffffffffffffffffffffffffffffffffffffffff16815260200190815260200160002060010160008867ffffffffffffffff1667ffffffffffffffff168152602001908152602001600020600101546002800160003373ffffffffffffffffffffffffffffffffffffffff1673ffffffffffffffffffffffffffffffffffffffff16815260200190815260200160002060010160008967ffffffffffffffff1667ffffffffffffffff16815260200190815260200160002060020160019054906101000a900467ffffffffffffffff166002800160003373ffffffffffffffffffffffffffffffffffffffff1673ffffffffffffffffffffffffffffffffffffffff16815260200190815260200160002060010160008a67ffffffffffffffff1667ffffffffffffffff168152602001908152602001600020600301546002800160003373ffffffffffffffffffffffffffffffffffffffff1673ffffffffffffffffffffffffffffffffffffffff16815260200190815260200160002060010160008b67ffffffffffffffff1667ffffffffffffffff16815260200190815260200160002060040154848054600181600116156101000203166002900480601f0160208091040260200160405190810160405280929190818152602001828054600181600116156101000203166002900480156116935780601f1061166857610100808354040283529160200191611693565b820191906000526020600020905b81548152906001019060200180831161167657829003601f168201915b505050505094509450945094509450945091939590929450565b600060013373ffffffffffffffffffffffffffffffffffffffff16434442860202020201604051602001808281526020019150506040516020818303038152906040528051906020012060001c9050919050565b828054600181600116156101000203166002900490600052602060002090601f016020900481019282601f1061174257805160ff1916838001178555611770565b82800160010185558215611770579182015b8281111561176f578251825591602001919060010190611754565b5b50905061177d9190611781565b5090565b6117a391905b8082111561179f576000816000905550600101611787565b5090565b9056fea265627a7a723158203a0892511f48773c9b4650cc1ed44f43702580a48e47cd1a92317acaeea663d164736f6c63430005100032",
  "source": "pragma solidity >=0.4.21 <0.7.0;\n\ncontract Certification {\n\n  address nftAddress = address(this);\n  address payable _wallet = address(uint160(nftAddress));\n\n  master Master;\n\nstruct master{\n    address payable masterAddress;\n    string masterName;\n    mapping(address=>house) users;\n}\n\nstruct house{\n  address payable HouseAddress;\n  uint64  certificateNumber;\n  mapping(uint64=>certificate) certificates;\n}\n\nstruct certificate{\n  string name;\n  uint256 validationNumber;\n  bool exist;\n  uint64  personNumber;\n  uint256 firstTime;\n  uint256 lastTime;\n  mapping(uint64=>person) people;\n}\n\nstruct person{\n    string name;\n    uint256 timeStamp;\n    bool exist;\n    uint256 certificateNumber;\n}\n\nstruct validatedCertificate{\n      address payable HouseAddress;\n      string certificateName;\n      string person;\n}\n\nmapping(uint256=>validatedCertificate) validatedCertificates;\n\nconstructor(string memory name) public payable{\n    Master = master(\n        msg.sender,\n        name\n        );\n  }\n\n  event LogDepositMade(address indexed accountAddress, uint amount);\n\n  function Randomize(uint256 _num) private view returns (uint256) {\n    return ((uint256(keccak256(abi.encodePacked(_num*block.timestamp*block.difficulty*block.number*uint256(msg.sender)+1)))));\n  }\n\n\n  function AddCertificate(string memory _name) public returns(uint64){\n      require(bytes(_name).length<=32 && bytes(_name).length>0);\n      Master.users[msg.sender].certificates[Master.users[msg.sender].certificateNumber] = certificate(\n          {\n              name:_name,\n              validationNumber: Randomize(13),\n              exist:true,\n              personNumber:0,\n              lastTime:block.timestamp,\n              firstTime:block.timestamp\n          });\n      Master.users[msg.sender].certificateNumber += 1;\n          return(Master.users[msg.sender].certificateNumber);\n  }\n\n  function GiveCertificate(uint64 _certificate,string memory _name) public returns(uint256 Number,bool success){\n      require(bytes(_name).length<=32 && bytes(_name).length>0);\n      require(Master.users[msg.sender].certificates[_certificate].exist == true);\n      uint256 certificateNumber = Randomize(Master.users[msg.sender].certificates[_certificate].validationNumber);\n      Master.users[msg.sender].certificates[_certificate].lastTime = block.timestamp;\n      Master.users[msg.sender].certificates[_certificate].people[Master.users[msg.sender].certificates[_certificate].personNumber] = person(\n          {\n              name:_name,\n              timeStamp:block.timestamp,\n              exist:true,\n              certificateNumber:certificateNumber\n          });\n      validatedCertificates[certificateNumber] = validatedCertificate({\n              HouseAddress:msg.sender,\n              certificateName:Master.users[msg.sender].certificates[_certificate].name,\n              person:Master.users[msg.sender].certificates[_certificate].people[Master.users[msg.sender].certificates[_certificate].personNumber].name\n          }) ;\n      Master.users[msg.sender].certificates[_certificate].personNumber += 1;\n      return(certificateNumber,true);\n      }\n\n  function SeeCertificates(uint64 _certificate) public view  returns(string  memory Certificate,uint256 validationNumber,uint64 Count,uint256 firstTimestamp,uint256 lastTimestamp){\n      require(Master.users[msg.sender].certificates[_certificate].exist==true);\n      return(\n          Master.users[msg.sender].certificates[_certificate].name,\n          Master.users[msg.sender].certificates[_certificate].validationNumber,\n          Master.users[msg.sender].certificates[_certificate].personNumber,\n          Master.users[msg.sender].certificates[_certificate].firstTime,\n          Master.users[msg.sender].certificates[_certificate].lastTime\n          );\n  }\n\n  function SeePeople(uint64 _certificate,uint64 _person)public view  returns (string memory Person,uint256 Certificate) {\n      require(Master.users[msg.sender].certificates[_certificate].people[_person].exist==true);\n      return( Master.users[msg.sender].certificates[_certificate].people[_person].name,\n          Master.users[msg.sender].certificates[_certificate].people[_person].certificateNumber\n          );\n  }\n\n  function CheckCertificate(uint256 _num) public view  returns(address payable House,string memory Certificate,string memory Person){\n      return(\n        validatedCertificates[_num].HouseAddress,validatedCertificates[_num].certificateName,validatedCertificates[_num].person);\n  }\n\n}\n",
  "sourcePath": "C:\\Users\\akifg\\Desktop\\deneme\\contracts\\SimpleStorage.sol",
  "compiler": {
    "name": "solc",
    "version": "0.5.16+commit.9c3226ce.Emscripten.clang"
  },
  "schemaVersion": "3.1.0",
  "updatedAt": "2020-05-24T14:19:52.879Z",
  "devdoc": {
    "methods": {}
  },
  "userdoc": {
    "methods": {}
  }
}